{
  "contractName": "Voting",
  "abi": [
    {
      "inputs": [
        {
          "internalType": "bytes32[]",
          "name": "candidateNames",
          "type": "bytes32[]"
        }
      ],
      "stateMutability": "nonpayable",
      "type": "constructor"
    },
    {
      "inputs": [
        {
          "internalType": "uint256",
          "name": "",
          "type": "uint256"
        }
      ],
      "name": "candidateList",
      "outputs": [
        {
          "internalType": "bytes32",
          "name": "",
          "type": "bytes32"
        }
      ],
      "stateMutability": "view",
      "type": "function",
      "constant": true
    },
    {
      "inputs": [
        {
          "internalType": "bytes32",
          "name": "",
          "type": "bytes32"
        }
      ],
      "name": "votesReceived",
      "outputs": [
        {
          "internalType": "uint8",
          "name": "",
          "type": "uint8"
        }
      ],
      "stateMutability": "view",
      "type": "function",
      "constant": true
    },
    {
      "inputs": [
        {
          "internalType": "bytes32",
          "name": "candidate",
          "type": "bytes32"
        }
      ],
      "name": "voteForCandidate",
      "outputs": [],
      "stateMutability": "nonpayable",
      "type": "function"
    },
    {
      "inputs": [
        {
          "internalType": "bytes32",
          "name": "candidate",
          "type": "bytes32"
        }
      ],
      "name": "totalVotesFor",
      "outputs": [
        {
          "internalType": "uint8",
          "name": "",
          "type": "uint8"
        }
      ],
      "stateMutability": "view",
      "type": "function",
      "constant": true
    },
    {
      "inputs": [
        {
          "internalType": "bytes32",
          "name": "candidate",
          "type": "bytes32"
        }
      ],
      "name": "validCandidate",
      "outputs": [
        {
          "internalType": "bool",
          "name": "",
          "type": "bool"
        }
      ],
      "stateMutability": "view",
      "type": "function",
      "constant": true
    }
  ],
  "bytecode": "0x60806040523480156200001157600080fd5b50604051620007da380380620007da83398181016040528101906200003791906200028c565b80600090805190602001906200004f92919062000057565b5050620002dd565b82805482825590600052602060002090810192821562000096579160200282015b828111156200009557825182559160200191906001019062000078565b5b509050620000a59190620000a9565b5090565b5b80821115620000c4576000816000905550600101620000aa565b5090565b6000604051905090565b600080fd5b600080fd5b600080fd5b6000601f19601f8301169050919050565b7f4e487b7100000000000000000000000000000000000000000000000000000000600052604160045260246000fd5b6200012c82620000e1565b810181811067ffffffffffffffff821117156200014e576200014d620000f2565b5b80604052505050565b600062000163620000c8565b905062000171828262000121565b919050565b600067ffffffffffffffff821115620001945762000193620000f2565b5b602082029050602081019050919050565b600080fd5b6000819050919050565b620001bf81620001aa565b8114620001cb57600080fd5b50565b600081519050620001df81620001b4565b92915050565b6000620001fc620001f68462000176565b62000157565b90508083825260208201905060208402830185811115620002225762000221620001a5565b5b835b818110156200024f57806200023a8882620001ce565b84526020840193505060208101905062000224565b5050509392505050565b600082601f830112620002715762000270620000dc565b5b815162000283848260208601620001e5565b91505092915050565b600060208284031215620002a557620002a4620000d2565b5b600082015167ffffffffffffffff811115620002c657620002c5620000d7565b5b620002d48482850162000259565b91505092915050565b6104ed80620002ed6000396000f3fe608060405234801561001057600080fd5b50600436106100575760003560e01c80632f265cf71461005c578063392e66781461008c5780637021939f146100bc578063b13c744b146100ec578063cc9ab2671461011c575b600080fd5b610076600480360381019061007191906102b2565b610138565b60405161008391906102fb565b60405180910390f35b6100a660048036038101906100a191906102b2565b610174565b6040516100b39190610331565b60405180910390f35b6100d660048036038101906100d191906102b2565b6101d7565b6040516100e391906102fb565b60405180910390f35b61010660048036038101906101019190610382565b6101f7565b60405161011391906103be565b60405180910390f35b610136600480360381019061013191906102b2565b61021b565b005b600061014382610174565b61014c57600080fd5b6001600083815260200190815260200160002060009054906101000a900460ff169050919050565b600080600090505b6000805490508110156101cc57826000828154811061019e5761019d6103d9565b5b906000526020600020015414156101b95760019150506101d2565b80806101c490610437565b91505061017c565b50600090505b919050565b60016020528060005260406000206000915054906101000a900460ff1681565b6000818154811061020757600080fd5b906000526020600020016000915090505481565b61022481610174565b61022d57600080fd5b600180600083815260200190815260200160002060008282829054906101000a900460ff1661025c9190610480565b92506101000a81548160ff021916908360ff16021790555050565b600080fd5b6000819050919050565b61028f8161027c565b811461029a57600080fd5b50565b6000813590506102ac81610286565b92915050565b6000602082840312156102c8576102c7610277565b5b60006102d68482850161029d565b91505092915050565b600060ff82169050919050565b6102f5816102df565b82525050565b600060208201905061031060008301846102ec565b92915050565b60008115159050919050565b61032b81610316565b82525050565b60006020820190506103466000830184610322565b92915050565b6000819050919050565b61035f8161034c565b811461036a57600080fd5b50565b60008135905061037c81610356565b92915050565b60006020828403121561039857610397610277565b5b60006103a68482850161036d565b91505092915050565b6103b88161027c565b82525050565b60006020820190506103d360008301846103af565b92915050565b7f4e487b7100000000000000000000000000000000000000000000000000000000600052603260045260246000fd5b7f4e487b7100000000000000000000000000000000000000000000000000000000600052601160045260246000fd5b60006104428261034c565b91507fffffffffffffffffffffffffffffffffffffffffffffffffffffffffffffffff82141561047557610474610408565b5b600182019050919050565b600061048b826102df565b9150610496836102df565b92508260ff038211156104ac576104ab610408565b5b82820190509291505056fea264697066735822122099c2d412fb2ebbdbe45fe9f4c7f66437ca14435a2d3823b3362bbf2ae6dadebf64736f6c634300080b0033",
  "immutableReferences": {},
  "source": "// SPDX-License-Identifier: MIT\n\npragma solidity >=0.6.0 <0.9.0;\n// This line says the code will compile with version greater than 0.4 and less than 0.6\n\ncontract Voting {\n  // constructor to initialize candidates\n  // vote for candidates\n  // get count of votes for each candidates\n  \n  bytes32[] public candidateList;\n  mapping (bytes32 => uint8) public votesReceived;\n\n  constructor(bytes32[] memory candidateNames) {\n    // solidity requires that any \n    candidateList = candidateNames;\n  }\n  \n  function voteForCandidate(bytes32 candidate) public {\n    require(validCandidate(candidate));\n    votesReceived[candidate] += 1;\n  }\n  \n  function totalVotesFor(bytes32 candidate) view public returns(uint8) {\n    require(validCandidate(candidate));\n    return votesReceived[candidate];\n  }\n  \n  function validCandidate(bytes32 candidate) view public returns (bool) {\n    for(uint i=0; i < candidateList.length; i++) {\n      if (candidateList[i] == candidate) {\n        return true;\n      }\n    }\n    return false;\n  }\n  \n}",
  "sourcePath": "/home/thanhthanh/Documents/study/voting-aap/contracts/Voting.sol",
  "compiler": {
    "name": "solc",
    "version": "0.8.11+commit.d7f03943.Emscripten.clang"
  },
  "schemaVersion": "3.4.5",
  "updatedAt": "2022-03-08T07:12:35.867Z",
  "networkType": "ethereum",
  "devdoc": {
    "kind": "dev",
    "methods": {},
    "version": 1
  },
  "userdoc": {
    "kind": "user",
    "methods": {},
    "version": 1
  }
}